:10000000112480914000811105C098ED21E094BF3A
:1000100020934100F2E02490239449F083FD03C033
:10002000982F947321F4809340008CBBE9C050E674
:10003000C0E2D8E08BE0B8D0409A88E080935104C9
:100040008AE8888783E08F8380EC8E83609A83E3DD
:10005000709A2AE238E6A8959C8197FD03C021504A
:100060003109C9F78150A1F797D0182F813471F465
:1000700093D0182FA2D082E0123821F08AE11138F3
:1000800009F083E083D080E181D0EECF84E11234A7
:1000900019F0153419F485E098D0F5CF153531F401
:1000A0007BD0E82E79D0F82E88D0EDCF1635C9F464
:1000B00073D0182F71D01C3A81F4F2E0A1E00A2E1F
:1000C00088E08E3014F486D0AA0FE895FA0F08F471
:1000D0000BBE8F5F8E30A8F31BBE82E076D080E02F
:1000E000D1CF153741F469D08EE150D086E94ED09A
:1000F00080910211C7CF113519F481E055D0D4CFCA
:10010000812F8F7E843609F0CFCF46D0D82E44D0B1
:10011000C82E42D0082F14FF11C04FD0F70106346B
:1001200031F4D601859132D01197E1F7ACCFFC5E66
:10013000D60181912BD01197E1F7A5CFFA01D60115
:100140002BD081931197E1F738D0053469F45A0127
:1001500087011C5E83E13ED0F801D501C6010D90F8
:1001600001920197E1F78FCFF701DA01222019F010
:1001700088E030D0E89582E02DD0C6010D901D902A
:10018000E89532960297D1F711247DCF9C8195FF97
:10019000FDCF8A83A89508958C8187FFFDCF888144
:1001A000998192FFA89508959091010190FDFCCF4F
:1001B00098ED94BF809300010895EEDF803219F02E
:1001C00081E0F2DFFFCF84E1E1CF082EE5DF0A9482
:1001D000E9F7F3CF9DE994BF1092001094BF80938C
:0401E000001008956E
:0401FA00F8950895D7
:0201FE00021AE3
:00000001FF
